:020000020000FC
:0200000005C039
:10000C0007C00000F8940FEF0DBF02E00EBF13C045
:10001C00F894F0E0EEE0759165915FE340E10591B5
:10002C00601B70404A95D9F75A95C1F76030F1F7CB
:10003C007030E1F7E7CFEE27FF2703E007BFE89525
:10004C00E0ECFFE35DEB03E007BFE895E051F04027
:10005C005A95C9F700E014E0480100EC1FE3580181
:10006C0059E2C0E0D1E06E0140E1F4010591099341
:10007C004A95E1F7E052F0404F01E60140E1F5010D
:10008C000990199001E007BFE89532964250C1F7EC
:10009C00E051F04005E007BFE89507B700FDFDCF44
:1000AC00E60140E105911991011709F0FFCF4A953E
:1000BC00C9F7E052F0405F015A9599F60CE71FE141
:0600CC000F931F9308953D
:10018000F8940FEF0DBF02E00EBF04B703FD38C1B6
:10019000BF9ABA98C29ADF9A1196F1F7B29B30C112
:1001A000E0D03296259127600A95F1F7B29B05C001
:1001B0001A95D1F72A95C1F723C105E0B29BFECF6E
:1001C000B299FECF1196B29BFDCF0A95C9F73D01BA
:1001D0003FEF259123232F3F71F0C6D0003021F04F
:1001E0000217B1F33327F5CF7CD026F07AD016F082
:1001F000AAD005C005C1E0EBFFE340E10FD0EE2738
:10020000FF2701E2BDD0B0D031D0F9CF62D00EF4DB
:100210000895A7D068946DD0A4D040E40591B0D0E3
:100220004A95E1F708955FD036F040E4F6DFE03418
:10023000D1F7FD33C1F708957FD04BD00EF4089568
:100240008CD008811981005E1F4028010FE91EED46
:10025000088319834FD03DD02EF04CD0FD33D9F711
:10026000EF33C9F72ED04882598243C00336A1F23A
:10027000033461F20636B9F20634F1F2053619F0AC
:10028000053469F0BDC02FD096F040E4EEBBFFBB53
:10029000E09A0DB375D031964A95C1F7F4CF19D0D5
:1002A00036F05BD0099104D04A95E1F7F8CF089574
:1002B0000DBBEEBBFFBBE29AE19AE199FECF31960E
:1002C00008954FD04AD0059109934A95E1F749D056
:1002D00044C007D02EF041D047D009934A95E1F7AA
:1002E00008950FE34DD040D0E894013209F06894AE
:1002F00008952FD032D024E040E10990199001E018
:1003000007BFE89532964250C1F7709705E007BFE6
:10031000E89507B700FDFDCF40E160970591199181
:10032000011729F026F001E22BD006D0FFCF4A9525
:10033000A9F72A9509F70895E0E4FDE3E054F040B9
:1003400008D0E1F70895F8DF0FEFB2DFF430E9F7F6
:1003500008D003E007BFE8950895C0E0D1E040E48D
:100360000895E0ECFFE30895C29AB299FECF18E039
:100370001CD016D00695B29900681A95D1F710C016
:100380000FD00CD018E000FD05D000FF07D0069577
:100390001A95C9F7BF9ABA98DF9A02C0BF9ADF9838
:1003A000D30152970000E8F70895D301B695A795B9
:0203B000F8CF84
:1003F000747362EC1CF01E931520A01EFF01000018
:00000001FF
